{
  "abi": [
    {
      "inputs": [],
      "name": "inc",
      "outputs": [],
      "stateMutability": "nonpayable",
      "type": "function"
    },
    {
      "inputs": [],
      "name": "val",
      "outputs": [
        {
          "internalType": "uint256",
          "name": "",
          "type": "uint256"
        }
      ],
      "stateMutability": "view",
      "type": "function"
    }
  ],
  "bytecode": {
    "object": "0x608060405234801561001057600080fd5b5060cc8061001f6000396000f3fe6080604052348015600f57600080fd5b506004361060325760003560e01c8063371303c01460375780633c6bb43614603f575b600080fd5b603d6059565b005b604760005481565b60405190815260200160405180910390f35b6001600080828254606991906070565b9091555050565b80820180821115609057634e487b7160e01b600052601160045260246000fd5b9291505056fea2646970667358221220300a9dba812c57daa4f97ad7f179b56a5db1f7250a1d25febcc01f638f86944464736f6c63430008110033",
    "linkReferences": {}
  },
  "methodIdentifiers": {
    "inc()": "371303c0",
    "val()": "3c6bb436"
  },
  "id": 1
}